:020000040800F2
:10000000002800204D0D0008850C00088B0C00080E
:10001000910C0008970C00089D0C000800000000DF
:10002000000000000000000000000000A30C000819
:10003000AF0C000800000000BB0C0008C70C000853
:10004000950D0008950D0008950D0008950D000808
:10005000950D0008950D0008950D0008950D0008F8
:10006000950D0008950D0008950D0008950D0008E8
:10007000950D0008950D0008950D0008950D0008D8
:10008000950D0008950D0008950D0008950D0008C8
:10009000950D0008950D0008950D0008950D0008B8
:1000A000950D0008950D0008950D0008950D0008A8
:1000B000950D0008950D000800000000950D000842
:1000C000950D00080000000000000000950D0008DC
:1000D00000000000950D0008950D000800000000CC
:1000E000950D0008950D0008950D00080000000012
:1000F0000000000000000000000000000000000000
:0C01000000000000000000005FF808F1A3
:10010C0010B5054C237833B9044B13B10448AFF345
:10011C0000800123237010BD880000200000000027
:10012C006C30000808B5034B1BB103490348AFF30F
:10013C00008008BD000000008C0000206C3000081E
:10014C00034613F8012B002AFBD1181A013870470B
:10015C0080F0004002E000BF81F0004142001FBF70
:10016C005FEA410392EA030F7FEA226C7FEA236C79
:10017C006AD04FEA1262D2EB1363C1BFD21841406E
:10018C0048404140B8BF5B42192B88BF704710F004
:10019C00004F40F4000020F07F4018BF404211F0A7
:1001AC00004F41F4000121F07F4118BF494292EA0F
:1001BC00030F3FD0A2F1010241FA03FC10EB0C003B
:1001CC00C3F1200301FA03F100F0004302D54942C8
:1001DC0060EB4000B0F5000F13D3B0F1807F06D375
:1001EC0040084FEA310102F10102FE2A51D2B1F16D
:1001FC00004F40EBC25008BF20F0010040EA030062
:10020C007047490040EB0000013A28BFB0F5000FE1
:10021C00EDD2B0FA80FCACF1080CB2EB0C0200FA97
:10022C000CF0AABF00EBC25052421843BCBFD040E6
:10023C001843704792F0000F81F4000106BF80F460
:10024C0000000132013BB5E74FEA41037FEA226C23
:10025C0018BF7FEA236C21D092EA030F04D092F0EE
:10026C00000F08BF0846704790EA010F1CBF002022
:10027C00704712F07F4F04D1400028BF40F000407F
:10028C00704712F100723CBF00F50000704700F09F
:10029C00004343F0FE4040F4000070477FEA2262C6
:1002AC0016BF08467FEA23630146420206BF5FEA97
:1002BC00412390EA010F40F4800070474FF0000397
:1002CC0004E000BF10F0004348BF40425FEA000C5E
:1002DC0008BF704743F0964301464FF000001CE006
:1002EC0050EA010208BF70474FF000030AE000BF5C
:1002FC0050EA010208BF704711F0004302D540429A
:10030C0061EB41015FEA010C02BF8446014600200B
:10031C0043F0B64308BFA3F18053A3F50003BCFA26
:10032C008CF2083AA3EBC25310DB01FA02FC6344D3
:10033C0000FA02FCC2F12002BCF1004F20FA02F2DA
:10034C0043EB020008BF20F00100704702F12002CD
:10035C0001FA02FCC2F1200250EA4C0021FA02F22E
:10036C0043EB020008BF20EADC7070474FF0FF0C33
:10037C001CEAD0521EBF1CEAD15392EA0C0F93EA2E
:10038C000C0F6FD01A4480EA010C400218BF5FEAD0
:10039C0041211ED04FF0006343EA501043EA511143
:1003AC00A0FB01310CF00040B1F5000F3EBF49003D
:1003BC0041EAD3715B0040EA010062F17F02FD2A41
:1003CC001DD8B3F1004F40EBC25008BF20F0010024
:1003DC00704790F0000F0CF0004C08BF49024CEA3B
:1003EC00502040EA51207F3AC2BFD2F1FF0340EACD
:1003FC00C250704740F400004FF00003013A5DDC3E
:10040C0012F1190FDCBF00F000407047C2F100027E
:10041C00410021FA02F1C2F1200200FA02FC5FEA6B
:10042C00310040F1000053EA4C0308BF20EADC70B5
:10043C00704792F0000F00F0004C02BF400010F427
:10044C00000F013AF9D040EA0C0093F0000F01F0D4
:10045C00004C02BF490011F4000F013BF9D041EAF6
:10046C000C018FE70CEAD15392EA0C0F18BF93EAF8
:10047C000C0F0AD030F0004C18BF31F0004CD8D122
:10048C0080EA010000F00040704790F0000F17BFA9
:10049C0090F0004F084691F0000F91F0004F14D0EF
:1004AC0092EA0C0F01D142020FD193EA0C0F03D147
:1004BC004B0218BF084608D180EA010000F000404A
:1004CC0040F0FE4040F40000704740F0FE4040F425
:1004DC00400070474FF0FF0C1CEAD0521EBF1CEAC4
:1004EC00D15392EA0C0F93EA0C0F69D0A2EB0302E2
:1004FC0080EA010C49024FEA402037D04FF080537C
:10050C0043EA111143EA10130CF000408B4238BF40
:10051C005B0042F17D024FF4000C8B4224BF5B1A4E
:10052C0040EA0C00B3EB510F24BFA3EB510340EA9C
:10053C005C00B3EB910F24BFA3EB910340EA9C004A
:10054C00B3EBD10F24BFA3EBD10340EADC001B01BA
:10055C0018BF5FEA1C1CE0D1FD2A3FF650AF8B425E
:10056C0040EBC25008BF20F0010070470CF0004C6B
:10057C004CEA50207F32C2BFD2F1FF0340EAC25096
:10058C00704740F400004FF00003013A37E792F057
:10059C00000F00F0004C02BF400010F4000F013AB5
:1005AC00F9D040EA0C0093F0000F01F0004C02BFB0
:1005BC00490011F4000F013BF9D041EA0C0195E719
:1005CC000CEAD15392EA0C0F08D142027FF47DAFB2
:1005DC0093EA0C0F7FF470AF084676E793EA0C0FA2
:1005EC0004D14B023FF44CAF08466EE730F0004CA0
:1005FC0018BF31F0004CCAD130F000427FF45CAF30
:10060C0031F000437FF43CAF5FE700BF4FEA40029C
:10061C00B2F1FE4F0FD34FF09E03B3EB12620DD924
:10062C004FEA002343F0004310F0004F23FA02F08E
:10063C0018BF404270474FF00000704712F1610F35
:10064C0001D1420205D110F0004008BF6FF000400C
:10065C0070474FF000007047B0B58AB000AFF8603B
:10066C00B9607A603B6097F8443087F82630B7F869
:10067C004030BB84FB6B3B623B8FBB833B68BB61F5
:10068C007B687B61BB683B6107F11003184600F087
:10069C000EF8FB681D4607F110040FCC0FC594E84B
:1006AC00030085E80300F8682837BD46B0BD80B567
:1006BC0082B000AF78607B689B7D002B0CD133211E
:1006CC00786800F057F83221786800F053F8282148
:1006DC00786800F04FF803E03821786800F04AF8A9
:1006EC000121786800F046F80C21786800F042F897
:1006FC000621786800F03EF800BF0837BD4680BD83
:10070C0090B585B000AF786039600023FB730AE0C8
:10071C00FB7B3A6813441B781946786800F058F84C
:10072C00FB7B0133FB73FC7B3868FFF709FD034649
:10073C009C42EDD300BF00BF1437BD4690BD0000F6
:10074C0080B582B000AF78600B46FB701346BB706F
:10075C00FB78074AD25CBB781344DBB2803BDBB23C
:10076C001946786800F006F800BF0837BD4680BD12
:10077C009830000880B582B000AF78600B46FB70F3
:10078C007B6898687B689B890022194601F03CFACB
:10079C007B689B7D002B11D1FB781B09DBB20422FB
:1007AC001946786800F042F8FB7803F00F03DBB2CF
:1007BC0004221946786800F039F805E0FB78082225
:1007CC001946786800F032F800BF0837BD4680BD86
:1007DC0080B582B000AF78600B46FB707B68986880
:1007EC007B689B890122194601F00EFA7B689B7D80
:1007FC00002B11D1FB781B09DBB204221946786857
:10080C0000F014F8FB7803F00F03DBB20422194656
:10081C00786800F00BF805E0FB7808221946786838
:10082C0000F004F800BF0837BD4680BD80B584B029
:10083C0000AF78600B46FB701346BB700023FB7354
:10084C0019E07B681A68FB7B9B00134418687B6873
:10085C005A68FB7B5B0013441988FA78FB7B42FADD
:10086C0003F3DBB203F00103DBB21A4601F0CCF95F
:10087C00FB7B0133FB73FA7BBB789A42E1D37B6839
:10088C0018697B689B8A0122194601F0BDF9012089
:10089C0000F0DEFA7B6818697B689B8A0022194697
:1008AC0001F0B2F900BF1037BD4680BDB0B596B0AF
:1008BC0004AF484B7B64484B3B6400F067FA00F094
:1008CC00A5F800F037F900F0F7F8444C384600234F
:1008DC00039301230293424B019302230093404B59
:1008EC00404A4149FFF7B8FE25463C460FCC0FC5A0
:1008FC0094E8030085E803000523FB633B4800F004
:10090C00A3FBFB6B1946394800F078FC0346002B1F
:10091C0058D1364800F078FD03461A46344B1A601D
:10092C00334B1B681846FFF7CDFC0346314918467C
:10093C00FFF71CFD034630491846FFF7CBFD034675
:10094C00BB63796CB86BFFF711FD03461946386C25
:10095C00FFF704FC03467B632849786BFFF7BAFD6D
:10096C0003467B632649786BFFF700FD0346184668
:10097C00FFF74CFE03463B633B6B224A82FB0312A0
:10098C005211DB17D31AFB623B6B1E4A82FB03121C
:10099C005111DA178A1A642101FB02F29B1ABB620D
:1009AC0007F11800BB6AFA6A174901F0DFFE002252
:1009BC0000210A48FFF7C4FE07F11803194607483F
:1009CC00FFF79EFE094800F0EDFB642000F040FAB2
:1009DC0094E700BF33B31B434C37A93FA40000205E
:1009EC00000C01400000002008000020BC0000208A
:1009FC00EC0000200000A04000F07F4500007A448D
:100A0C000000C8421F85EB518430000880B594B0BB
:100A1C0000AF07F1280328220021184601F09EFEA2
:100A2C0007F1140300221A605A609A60DA601A61A6
:100A3C003B1D00221A605A609A60DA600223BB6286
:100A4C000123BB631023FB6302237B640023BB6481
:100A5C004FF44023FB6407F12803184601F0ECF82F
:100A6C000346002B01D000F0A3F80F237B61022377
:100A7C00BB610023FB6100233B6200237B6207F117
:100A8C0014030021184601F059FB0346002B01D03A
:100A9C0000F08EF802237B600023FB603B1D1846A0
:100AAC0001F0C6FC0346002B01D000F081F800BF1A
:100ABC005037BD4680BD000080B584B000AF3B1DF3
:100ACC0000221A605A609A60184B194A1A60174B28
:100ADC0000229A60154B00221A73144B00221A75CF
:100AEC00124B4FF46022DA61104B00225A600F4B0C
:100AFC0001221A610D4800F0CFF90346002B01D0FA
:100B0C0000F056F801237B600123BB600023FB60DF
:100B1C003B1D1946054800F083FC0346002B01D011
:100B2C0000F046F800BF1037BD4680BDBC00002069
:100B3C000024014080B586B000AF07F10803002205
:100B4C001A605A609A60DA60174B9B69164A43F038
:100B5C0004039361144B9B6903F004037B607B6873
:100B6C00114B9B69104A43F0080393610E4B9B6930
:100B7C0003F008033B603B680022F3210B4801F0B3
:100B8C0043F8F323BB600123FB6000233B6102238A
:100B9C007B6107F108031946044800F0B9FE00BF59
:100BAC001837BD4680BD00BF00100240000C01404C
:100BBC0080B400AF72B600BFFEE7000080B483B013
:100BCC0000AF0E4B9B690D4A43F0010393610B4B35
:100BDC009B6903F001037B607B68084BDB69074A68
:100BEC0043F08053D361054BDB6903F080533B60CA
:100BFC003B6800BF0C37BD4680BC704700100240FC
:100C0C0080B588B000AF786007F1100300221A603D
:100C1C005A609A60DA607B681B68144A934221D14F
:100C2C00134B9B69124A43F400739361104B9B69FD
:100C3C0003F40073FB60FB680D4B9B690C4A43F09B
:100C4C00040393610A4B9B6903F00403BB60BB680C
:100C5C0002233B6103237B6107F11003194605480E
:100C6C0000F056FE00BF2037BD4680BD0024014079
:100C7C00001002400008014080B400AFFEE780B4D1
:100C8C0000AFFEE780B400AFFEE780B400AFFEE734
:100C9C0080B400AFFEE780B400AF00BFBD4680BC9F
:100CAC00704780B400AF00BFBD4680BC704780B4B5
:100CBC0000AF00BFBD4680BC704780B500AF00F0F0
:100CCC00ABF800BF80BD000080B586B000AF786087
:100CDC00144A154BD31A7B617B693B61134B1B6820
:100CEC00002B02D1114B124A1A60104B1A687B6808
:100CFC0013443A699A4207D201F006FD03460C22CE
:100D0C001A604FF0FF3309E0084B1B68FB60074B80
:100D1C001A687B681344054A1360FB681846183739
:100D2C00BD4680BD0028002000040000F00000201B
:100D3C000801002080B400AF00BFBD4680BC7047E6
:100D4C00FFF7F8FF0B480C490C4A002302E0D4587B
:100D5C00C4500433C4188C42F9D3094A094C0023FB
:100D6C0001E013600432A242FBD301F0D3FCFFF785
:100D7C009DFD7047000000208800002018310008FD
:100D8C008800002008010020FEE7000080B500AFBD
:100D9C00084B1B68074A43F010031360032000F054
:100DAC0083FD0F2000F008F8FFF708FF002318461A
:100DBC0080BD00BF0020024080B582B000AF7860DB
:100DCC00124B1A68124B1B7819464FF47A73B3FB0B
:100DDC00F1F3B2FBF3F3184600F08DFD0346002B44
:100DEC0001D001230EE07B680F2B0AD80022796812
:100DFC004FF0FF3000F063FD064A7B681360002360
:100E0C0000E0012318460837BD4680BD18000020BD
:100E1C00200000201C00002080B400AF054B1B7884
:100E2C001A46054B1B681344034A136000BFBD46AA
:100E3C0080BC704720000020F400002080B400AF7C
:100E4C00024B1B681846BD4680BC7047F40000205E
:100E5C0080B584B000AF7860FFF7F0FFB8607B68B6
:100E6C00FB60FB68B3F1FF3F05D00A4B1B781A46B9
:100E7C00FB681344FB6000BFFFF7E0FF0246BB6852
:100E8C00D31AFA689A42F7D800BF00BF1037BD4694
:100E9C0080BD00BF2000002080B586B000AF786018
:100EAC000023FB7500233B610023BB600023FB6028
:100EBC007B68002B01D10123BEE07B689B68002B73
:100ECC007B689B6A002B09D17B680022DA627B6805
:100EDC00002283F824207868FFF792FE786800F0EF
:100EEC00F1FB0346FB757B689B6A03F01003002B38
:100EFC0040F09980FB7D002B40F095807B689B6ACD
:100F0C0023F4885323F0020343F002027B689A62B5
:100F1C007B685A687B68DB691A437B681B7B5B00C8
:100F2C001343BA681343BB607B689B68B3F5807F3F
:100F3C0003D07B689B68012B02D14FF4807300E0D7
:100F4C0000233A6913433B617B681B7D012B19D14C
:100F5C007B681B7B002B09D17B689B69013B5A0387
:100F6C003B69134343F400633B610BE07B689B6A72
:100F7C0043F020027B689A627B68DB6A43F00102D3
:100F8C007B68DA627B681B685B6823F469417B6869
:100F9C001B683A690A435A607B681B689A68284B3D
:100FAC0013407A681268B9680B4393607B689B683E
:100FBC00B3F5807F03D07B689B68012B04D17B68E1
:100FCC001B69013B1B05FB607B681B68DB6A23F418
:100FDC0070017B681B68FA680A43DA627B681B68DD
:100FEC009A68184B1340BA689A420BD17B6800225E
:100FFC00DA627B689B6A23F0030343F001027B688F
:10100C009A6218E07B689B6A23F0120343F010028B
:10101C007B689A627B68DB6A43F001027B68DA6268
:10102C000123FB7507E07B689B6A43F010027B6829
:10103C009A620123FB75FB7D18461837BD4680BDAF
:10104C00FDF7E1FFFE0E1FFF80B584B000AF7860A6
:10105C000023FB737B6893F82430012B01D102230E
:10106C0098E07B68012283F82420786800F0D0FA9D
:10107C000346FB73FB7B002B40F087807B689B6AED
:10108C0023F4407323F0010343F480727B689A626B
:10109C007B681B68414A934205D1414B5B6803F462
:1010AC007023002B15D17B689B6A23F480127B681C
:1010BC009A627B681B685B6803F48063002B26D004
:1010CC007B689B6A23F4405343F480527B689A629A
:1010DC001DE07B689B6A43F480127B689A627B6894
:1010EC001B682F4A934204D07B681B682B4A93429F
:1010FC000DD12B4B5B6803F48063002B07D07B680E
:10110C009B6A23F4405343F480527B689A627B6859
:10111C009B6A03F48053002B06D07B68DB6A23F0B8
:10112C0006027B68DA6202E07B680022DA627B6886
:10113C00002283F824207B681B686FF002021A607F
:10114C007B681B689B6803F46023B3F5602F13D195
:10115C007B681B68114A934205D1114B5B6803F401
:10116C007023002B08D17B681B689A687B681B680E
:10117C0042F4A0029A600CE07B681B689A687B685A
:10118C001B6842F480129A6003E07B68002283F8AB
:10119C002420FB7B18461037BD4680BD002801403B
:1011AC000024014080B584B000AF78600023FB734D
:1011BC007B6893F82430012B01D102231AE07B6861
:1011CC00012283F82420786800F07CFA0346FB7334
:1011DC00FB7B002B09D17B689B6A23F4885323F09B
:1011EC00010343F001027B689A627B68002283F85A
:1011FC002420FB7B18461037BD4680BD90B587B0C8
:10120C0000AF7860396000237B610023FB60002312
:10121C003B61FFF713FE78617B681B689B6803F4E6
:10122C008073002B0BD07B689B6A43F020027B6899
:10123C009A627B68002283F824200123D3E07B6828
:10124C001B685B6803F48073002B31D17B681B68CF
:10125C00DB6A03F47003002B2AD121E03B68B3F165
:10126C00FF3F1DD03B68002B07D0FFF7E7FD024680
:10127C007B69D31A3A689A4212D27B681B681B6846
:10128C0003F00203002B0BD17B689B6A43F0040232
:10129C007B689A627B68002283F824200323A2E0F7
:1012AC007B681B681B6803F00203002BD6D070E030
:1012BC004F4B1C68022001F071F90346B4FBF3F2AA
:1012CC007B681B6819694B4B0B40002B18D17B6852
:1012DC001B68D968484B0B40002B11D17B681B68ED
:1012EC001969464B0B40002B08D17B681B68D968E9
:1012FC00434B0B40002B01D1142320E029231EE08B
:10130C007B681B6819693D4B0B40002B06D17B6831
:10131C001B68D9683A4B0B40002B0DD07B681B68BF
:10132C001969384B0B40002B08D17B681B68D968B6
:10133C00344B0B40002B01D1542300E0FC2302FB67
:10134C0003F33B6121E03B68B3F1FF3F1AD03B68EC
:10135C00002B07D0FFF772FD02467B69D31A3A685F
:10136C009A420FD2FB683A699A420BD97B689B6A06
:10137C0043F004027B689A627B68002283F8242085
:10138C00032330E0FB680133FB60FB683A699A4247
:10139C00D9D87B681B686FF012021A607B689B6A55
:1013AC0043F400727B689A627B681B689B6803F449
:1013BC006023B3F5602F15D17B681B7B002B11D1FB
:1013CC007B689B6A23F480727B689A627B689B6A59
:1013DC0003F48053002B05D17B689B6A43F0010218
:1013EC007B689A62002318461C37BD4690BD00BF2F
:1013FC001800002024499224244992009224491276
:10140C00922449004992240080B483B000AF7860E4
:10141C007B681B68DB6C18460C37BD4680BC70477C
:10142C0080B485B000AF786039600023FB73002373
:10143C00BB607B6893F82430012B01D10223DCE0E4
:10144C007B68012283F824203B685B68062B1CD840
:10145C007B681B68596B3B685A6813469B001344A6
:10146C00053B1F2202FA03F3DB4319403B68186863
:10147C003B685A6813469B001344053B00FA03F281
:10148C007B681B680A435A633CE03B685B680C2B27
:10149C001CD87B681B68196B3B685A6813469B0009
:1014AC001344233B1F2202FA03F3DB4319403B682E
:1014BC0018683B685A6813469B001344233B00FA98
:1014CC0003F27B681B680A431A631BE07B681B688A
:1014DC00D96A3B685A6813469B001344413B1F2250
:1014EC0002FA03F3DB4319403B6818683B685A68FF
:1014FC0013469B001344413B00FA03F27B681B68C4
:10150C000A43DA623B681B68092B1CD97B681B6891
:10151C00D9683B681A6813465B0013441E3B0722CC
:10152C0002FA03F3DB4319403B6898683B681A687E
:10153C0013465B0013441E3B00FA03F27B681B68E6
:10154C000A43DA6019E07B681B6819693B681A6802
:10155C0013465B001344072202FA03F3DB431940E2
:10156C003B6898683B681A6813465B00134400FAA2
:10157C0003F27B681B680A431A613B681B68102BDB
:10158C0003D03B681B68112B32D17B681B681D4A4A
:10159C00934225D17B681B689B6803F40003002BE6
:1015AC0026D17B681B689A687B681B6842F4000232
:1015BC009A603B681B68102B1AD1134B1B68134A9B
:1015CC00A2FB03239A0C13469B0013445B00BB60E5
:1015DC0002E0BB68013BBB60BB68002BF9D107E0A4
:1015EC007B689B6A43F020027B689A620123FB7341
:1015FC007B68002283F82420FB7B18461437BD46F9
:10160C0080BC7047002401401800002083DE1B437F
:10161C0080B584B000AF78600023FB600023BB6012
:10162C007B681B689B6803F00103012B40D07B682F
:10163C001B689A687B681B6842F001029A601F4B1A
:10164C001B681F4AA2FB03239B0CBB6002E0BB6818
:10165C00013BBB60BB68002BF9D1FFF7EFFBF860D7
:10166C001FE0FFF7EBFB0246FB68D31A022B18D9DD
:10167C007B681B689B6803F00103012B11D07B680E
:10168C009B6A43F010027B689A627B68DB6A43F0CA
:10169C0001027B68DA627B68002283F82420012334
:1016AC0007E07B681B689B6803F00103012BD8D112
:1016BC00002318461037BD4680BD00BF180000201F
:1016CC0083DE1B4380B584B000AF78600023FB60E1
:1016DC007B681B689B6803F00103012B2ED17B6890
:1016EC001B689A687B681B6822F001029A60FFF7FE
:1016FC00A5FBF8601BE0FFF7A1FB0246FB68D31AC1
:10170C00022B14D97B681B689B6803F00103012B27
:10171C000DD17B689B6A43F010027B689A627B68F0
:10172C00DB6A43F001027B68DA62012307E07B6825
:10173C001B689B6803F00103012BDCD000231846C7
:10174C001037BD4680BD000080B485B000AF786016
:10175C007B6803F00703FB600C4BDB68BB60BA686B
:10176C004FF6FF031340BB60FB681A02BB681343C0
:10177C0043F0BF6343F40033BB60044ABB68D360DF
:10178C0000BF1437BD4680BC704700BF00ED00E0C1
:10179C0080B400AF044BDB681B0A03F00703184648
:1017AC00BD4680BC704700BF00ED00E080B483B044
:1017BC0000AF03463960FB7197F90730002B0ADB49
:1017CC003B68DAB20C4997F907301201D2B20B44DC
:1017DC0083F800230AE03B68DAB20849FB7903F08E
:1017EC000F03043B1201D2B20B441A7600BF0C3724
:1017FC00BD4680BC704700BF00E100E000ED00E09A
:10180C0080B489B000AFF860B9607A60FB6803F00F
:10181C000703FB61FB69C3F10703042B28BF0423F7
:10182C00BB61FB690433062B02D9FB69033B00E067
:10183C0000237B614FF0FF32BB6902FA03F3DA43FA
:10184C00BB681A407B699A404FF0FF317B6901FA03
:10185C0003F3D9437B680B40134318462437BD462A
:10186C0080BC704780B582B000AF78607B68013B6C
:10187C00B3F1807F01D301230FE00A4A7B68013B5F
:10188C0053600F214FF0FF30FFF790FF054B002204
:10189C009A60044B07221A60002318460837BD468D
:1018AC0080BD00BF10E000E080B582B000AF786072
:1018BC007868FFF749FF00BF0837BD4680BD80B58B
:1018CC0086B000AF0346B9607A60FB7300237B617E
:1018DC00FFF75EFF78617A68B9687869FFF790FF67
:1018EC00024697F90F3011461846FFF75FFF00BF0D
:1018FC001837BD4680BD80B582B000AF786078687F
:10190C00FFF7B0FF034618460837BD4680BD000000
:10191C0080B48BB000AF7860396000237B62002309
:10192C003B6261E101227B6A02FA03F3FB613B68D3
:10193C001B68FA691340BB61BA69FB699A4240F0B3
:10194C0050813B685B68974A93425ED0954A9342BC
:10195C0075D8954A934258D0934A93426FD8934A7C
:10196C00934252D0914A934269D8914A93424CD0B7
:10197C008F4A934263D88F4A934246D08D4A934202
:10198C005DD8122B2AD8122B59D801A252F823F069
:10199C00171A0008F1190008031A0008451A000864
:1019AC004B1A00084B1A00084B1A00084B1A000877
:1019BC004B1A00084B1A00084B1A00084B1A000867
:1019CC004B1A00084B1A00084B1A00084B1A000857
:1019DC004B1A0008F91900080D1A0008764A9342B0
:1019EC0013D02CE03B68DB683B6229E03B68DB688A
:1019FC0004333B6224E03B68DB6808333B621FE046
:101A0C003B68DB680C333B621AE03B689B68002B3D
:101A1C0002D104233B6213E03B689B68012B05D188
:101A2C0008233B627B68FA691A6109E008233B6270
:101A3C007B68FA695A6103E000233B6200E000BF57
:101A4C00BB69FF2B01D87B6801E07B6804337B61A9
:101A5C00BB69FF2B02D87B6A9B0002E07B6A083BC8
:101A6C009B003B617B691A680F213B6901FA03F308
:101A7C00DB431A40396A3B6901FA03F31A437B6969
:101A8C001A603B685B6803F08053002B00F0A98060
:101A9C004A4B9B69494A43F001039361474B9B694D
:101AAC0003F00103BB60BB68454A7B6A9B080233A9
:101ABC0052F82330FB607B6A03F003039B000F2278
:101ACC0002FA03F3DB43FA681340FB607B683D4A80
:101ADC0093420DD07B683C4A934207D07B683B4ACB
:101AEC00934201D1022304E0032302E0012300E02E
:101AFC0000237A6A02F0030292009340FA681343BF
:101B0C00FB602F497B6A9B080233FA6841F823205B
:101B1C003B685B6803F48013002B06D02C4B9A684F
:101B2C002B49BB6913438B6006E0294B9A68BB6950
:101B3C00DB43274913408B603B685B6803F400135D
:101B4C00002B06D0224BDA682149BB691343CB60CA
:101B5C0006E01F4BDA68BB69DB431D491340CB60C1
:101B6C003B685B6803F40033002B06D0184B5A68B3
:101B7C001749BB6913434B6006E0154B5A68BB69A8
:101B8C00DB43134913404B603B685B6803F48033C1
:101B9C00002B1FD00E4B1A680D49BB6913430B6009
:101BAC001FE000BF000032100000311000002210B6
:101BBC000000211000001210000011100010024053
:101BCC000000014000080140000C014000100140E1
:101BDC00000401400B4B1A68BB69DB4309491340F5
:101BEC000B607B6A01337B623B681A687B6A22FA62
:101BFC0003F3002B7FF496AE00BF00BF2C37BD461D
:101C0C0080BC70470004014080B483B000AF7860A2
:101C1C000B467B8013467B707B78002B03D07A8835
:101C2C007B681A6103E07B881A047B681A6100BF29
:101C3C000C37BD4680BC704780B586B000AF78606D
:101C4C007B68002B01D1012372E27B681B6803F0D7
:101C5C000103002B00F08780924B5B6803F00C03B0
:101C6C00042B0CD08F4B5B6803F00C03082B12D1A8
:101C7C008C4B5B6803F48033B3F5803F0BD1894BFD
:101C8C001B6803F40033002B6CD07B685B68002B63
:101C9C0068D101234CE27B685B68B3F5803F06D1C9
:101CAC00804B1B687F4A43F4803313602EE07B68C3
:101CBC005B68002B0CD17B4B1B687A4A23F4803376
:101CCC001360784B1B68774A23F4802313601DE064
:101CDC007B685B68B3F5A02F0CD1724B1B68714A03
:101CEC0043F4802313606F4B1B686E4A43F48033BC
:101CFC0013600BE06B4B1B686A4A23F48033136050
:101D0C00684B1B68674A23F4802313607B685B680D
:101D1C00002B13D0FFF792F8386108E0FFF78EF82C
:101D2C0002463B69D31A642B01D9032300E25D4BB5
:101D3C001B6803F40033002BF0D014E0FFF77EF89F
:101D4C00386108E0FFF77AF802463B69D31A642B36
:101D5C0001D90323ECE1534B1B6803F40033002B34
:101D6C00F0D100E000BF7B681B6803F00203002B7E
:101D7C0063D04C4B5B6803F00C03002B0BD0494B2E
:101D8C005B6803F00C03082B1CD1464B5B6803F417
:101D9C008033002B16D1434B1B6803F00203002B3E
:101DAC0005D07B681B69012B01D00123C0E13D4BA1
:101DBC001B6823F0F8027B685B69DB00394913432D
:101DCC000B603AE07B681B69002B20D0364B01225C
:101DDC001A60FFF733F8386108E0FFF72FF8024676
:101DEC003B69D31A022B01D90323A1E12D4B1B68AC
:101DFC0003F00203002BF0D02A4B1B6823F0F802EF
:101E0C007B685B69DB00274913430B6015E0264BAD
:101E1C0000221A60FFF712F8386108E0FFF70EF89D
:101E2C0002463B69D31A022B01D9032380E11D4BD7
:101E3C001B6803F00203002BF0D17B681B6803F0D6
:101E4C000803002B3AD07B689B69002B19D0174BE9
:101E5C0001221A60FEF7F2FF386108E0FEF7EEFF90
:101E6C0002463B69D31A022B01D9032360E10D4BC7
:101E7C005B6A03F00203002BF0D0012000F0BAFAE9
:101E8C001CE00A4B00221A60FEF7D8FF38610FE005
:101E9C00FEF7D4FF02463B69D31A022B08D9032361
:101EAC0046E100BF00100240000042428004424262
:101EBC00924B5B6A03F00203002BE9D17B681B6831
:101ECC0003F00403002B00F0A6800023FB758B4B62
:101EDC00DB6903F08053002B0DD1884BDB69874AFB
:101EEC0043F08053D361854BDB6903F08053BB60B7
:101EFC00BB680123FB75824B1B6803F48073002BBA
:101F0C0018D17F4B1B687E4A43F480731360FEF735
:101F1C0095FF386108E0FEF791FF02463B69D31A42
:101F2C00642B01D9032303E1754B1B6803F4807305
:101F3C00002BF0D07B68DB68012B06D16F4B1B6A42
:101F4C006E4A43F0010313622DE07B68DB68002BC3
:101F5C000CD16A4B1B6A694A23F001031362674B6D
:101F6C001B6A664A23F0040313621CE07B68DB687F
:101F7C00052B0CD1614B1B6A604A43F004031362BE
:101F8C005E4B1B6A5D4A43F0010313620BE05B4B33
:101F9C001B6A5A4A23F001031362584B1B6A574AB7
:101FAC0023F0040313627B68DB68002B15D0FEF76B
:101FBC0045FF38610AE0FEF741FF02463B69D31A40
:101FCC0041F28832934201D90323B1E04B4B1B6A97
:101FDC0003F00203002BEED014E0FEF72FFF386164
:101FEC000AE0FEF72BFF02463B69D31A41F2883216
:101FFC00934201D903239BE0404B1B6A03F002037D
:10200C00002BEED1FB7D012B05D13C4BDB693B4A10
:10201C0023F08053D3617B68DB69002B00F0878051
:10202C00364B5B6803F00C03082B61D07B68DB69D3
:10203C00022B46D1334B00221A60FEF7FFFE3861AB
:10204C0008E0FEF7FBFE02463B69D31A022B01D9CE
:10205C0003236DE0294B1B6803F00073002BF0D1B8
:10206C007B681B6AB3F5803F08D1244B5B6823F473
:10207C0000327B689B68214913434B601F4B5B68A4
:10208C0023F474127B68196A7B685B6A0B431B49E7
:10209C0013434B601B4B01221A60FEF7CFFE3861D5
:1020AC0008E0FEF7CBFE02463B69D31A022B01D99E
:1020BC0003233DE0114B1B6803F00073002BF0D0A1
:1020CC0035E0104B00221A60FEF7B8FE386108E0CC
:1020DC00FEF7B4FE02463B69D31A022B01D9032347
:1020EC0026E0064B1B6803F00073002BF0D11EE0BA
:1020FC007B68DB69012B07D1012319E0001002403A
:10210C0000700040600042420B4B5B68FB60FB6858
:10211C0003F480327B681B6A9A4206D1FB6803F495
:10212C0070127B685B6A9A4201D0012300E00023A5
:10213C0018461837BD4680BD0010024080B584B0EB
:10214C0000AF786039607B68002B01D10123D0E0AF
:10215C006A4B1B6803F007033A689A4210D9674B25
:10216C001B6823F0070265493B6813430B60634B04
:10217C001B6803F007033A689A4201D00123B8E0C8
:10218C007B681B6803F00203002B20D07B681B6864
:10219C0003F00403002B05D0594B5B68584A43F4F9
:1021AC00E06353607B681B6803F00803002B05D0C9
:1021BC00534B5B68524A43F460535360504B5B681B
:1021CC0023F0F0027B689B684D4913434B607B689E
:1021DC001B6803F00103002B40D07B685B68012B6C
:1021EC0007D1474B1B6803F40033002B15D1012397
:1021FC007FE07B685B68022B07D1414B1B6803F0C7
:10220C000073002B09D1012373E03D4B1B6803F0D5
:10221C000203002B01D101236BE0394B5B6823F0E7
:10222C0003027B685B68364913434B60FEF706FE7E
:10223C00F8600AE0FEF702FE0246FB68D31A41F290
:10224C008832934201D9032353E02D4B5B6803F092
:10225C000C027B685B689B009A42EBD1274B1B6896
:10226C0003F007033A689A4210D2244B1B6823F000
:10227C00070222493B6813430B60204B1B6803F099
:10228C0007033A689A4201D0012332E07B681B684D
:10229C0003F00403002B08D0194B5B6823F4E062B5
:1022AC007B68DB68164913434B607B681B6803F043
:1022BC000803002B09D0124B5B6823F460527B6837
:1022CC001B69DB000E4913434B6000F021F80246FA
:1022DC000B4B5B681B0903F00F030A49CB5C22FA1A
:1022EC0003F3094A1360094B1B681846FEF764FD9B
:1022FC00002318461037BD4680BD00BF00200240A9
:10230C00001002409C300008180000201C00002027
:10231C0080B487B000AF0023FB600023BB600023B8
:10232C007B6100237B6000233B611E4B5B68FB6081
:10233C00FB6803F00C03042B02D0082B03D027E01E
:10234C00194B3B6127E0FB689B0C03F00F03174A0A
:10235C00D35C7B60FB6803F48033002B10D0114BF3
:10236C005B685B0C03F00103114AD35CBB607B68B8
:10237C000D4A03FB02F2BB68B2FBF3F37B6104E092
:10238C007B680C4A02FB03F37B617B693B6102E0D7
:10239C00054B3B6100BF3B6918461C37BD4680BCF2
:1023AC00704700BF0010024000127A00B4300008E1
:1023BC00C430000800093D0080B400AF024B1B681C
:1023CC001846BD4680BC70471800002080B500AF91
:1023DC00FFF7F2FF0246054B5B68DB0A03F00703CD
:1023EC000349CB5C22FA03F3184680BD001002406F
:1023FC00AC30000880B485B000AF78600A4B1B6825
:10240C000A4AA2FB03235B0A7A6802FB03F3FB6014
:10241C0000BFFB685A1EFA60002BF9D100BF00BF49
:10242C001437BD4680BC704718000020D34D621095
:10243C0080B586B000AF786000233B610023FB6061
:10244C007B681B6803F00103002B7DD00023FB7518
:10245C004F4BDB6903F08053002B0DD14C4BDB69E8
:10246C004B4A43F08053D361494BDB6903F08053F3
:10247C00BB60BB680123FB75464B1B6803F4807380
:10248C00002B18D1434B1B68424A43F480731360F2
:10249C00FEF7D4FC386108E0FEF7D0FC02463B693D
:1024AC00D31A642B01D903236DE03A4B1B6803F458
:1024BC008073002BF0D0364B1B6A03F44073FB6027
:1024CC00FB68002B2ED07B685B6803F44073FA68C2
:1024DC009A4227D02E4B1B6A23F44073FB602E4B81
:1024EC0001221A602C4B00221A60294AFB681362E5
:1024FC00FB6803F00103002B14D0FEF79FFC38613E
:10250C000AE0FEF79BFC02463B69D31A41F2883283
:10251C00934201D9032336E01D4B1B6A03F00203DF
:10252C00002BEED01A4B1B6A23F440727B685B685D
:10253C00174913430B62FB7D012B05D1144BDB694F
:10254C00134A23F08053D3617B681B6803F00203AA
:10255C00002B08D00E4B5B6823F440427B689B68D1
:10256C000B4913434B607B681B6803F01003002B73
:10257C0008D0074B5B6823F480027B68DB68044956
:10258C0013434B60002318461837BD4680BD00BF6F
:10259C0000100240007000404004424280B588B0F8
:1025AC0000AF786000237B610023FB6100233B615B
:1025BC000023FB600023BB617B68102B0AD07B6877
:1025CC00102B00F28A807B68012B45D07B68022B94
:1025DC0075D082E0464B5B68FB60454B1B6803F093
:1025EC008073002B7BD0FB689B0C03F00F03414ADC
:1025FC00D35C3B61FB6803F48033002B15D03C4B60
:10260C005B685B0C03F001033B4AD35C7B61FB68AA
:10261C0003F48033002B0DD0384A7B69B2FBF3F204
:10262C003B6902FB03F3FB6104E03B69344A02FBA8
:10263C0003F3FB612E4B5B6803F48003B3F5800F4F
:10264C0002D1FB69BB614AE0FB695B002D4AA2FB2E
:10265C0003235B08BB6142E0254B1B6AFB60FB68F4
:10266C0003F44073B3F5807F08D1FB6803F00203D9
:10267C00002B03D04FF40043BB611FE0FB6803F455
:10268C004073B3F5007F09D1194B5B6A03F0020369
:10269C00002B03D049F64043BB610FE0FB6803F409
:1026AC004073B3F5407F1CD1114B1B6803F400330E
:1026BC00002B16D04FF22443BB6112E011E0FFF760
:1026CC0085FE02460A4B5B689B0B03F00303013348
:1026DC005B00B2FBF3F3BB6104E000BF02E000BFA0
:1026EC0000E000BFBB6918462037BD4680BD00BF67
:1026FC0000100240C8300008D830000800127A00E0
:10270C0000093D00ABAAAAAA014B1868704700BF8C
:10271C002400002070B500260C4D0D4C641BA41039
:10272C00A64209D100F09CFC00260A4D0A4C641B01
:10273C00A410A64205D170BD55F8043B984701364C
:10274C00EEE755F8043B98470136F2E710310008E4
:10275C0010310008103100081431000803460244FF
:10276C00934200D1704703F8011BF9E70EB46FF0E8
:10277C00004100B59CB01DAB0290069007910491EE
:10278C000848094953F8042B0591006802A90193E4
:10279C0000F068F80022029B1A701CB05DF804EB84
:1027AC0003B07047240000200802FFFF2DE9F0471A
:1027BC008E6882469E420C4690461F4638D88A89BF
:1027CC0012F4906F32D0256809690133A5EB010929
:1027DC0065694B4405EB450505EBD5756D109D42C0
:1027EC0038BF1D46530531D5294600F06FFB064610
:1027FC0050B90C234FF0FF30CAF80030A38943F0D6
:10280C004003A381BDE8F0874A46216900F0CEFA67
:10281C00A38923F4906343F08003A38126614E4483
:10282C0026603E466561A5EB0905A560BE4200D950
:10283C003E4632464146206800F0C6FAA3680020A6
:10284C009B1BA360236833442360DBE72A4600F01C
:10285C00B1FB06460028E1D15046216900F0CEFAC2
:10286C00C7E700002DE9F04F98468B8907461B06F9
:10287C000D4614469DB00ED50B6963B9402100F08E
:10288C0025FB2860286120B90C233B604FF0FF30FA
:10289C00D1E040236B610023099320238DF829306C
:1028AC0030234FF00109CDF80C80DFF8A4818DF8AE
:1028BC002A3023469A4613F8012B0AB1252AF9D15E
:1028CC00BAEB040B0BD05B46224629463846FFF781
:1028DC006DFF013000F0AA80099A5A4409929AF8C7
:1028EC000030002B00F0A28000234FF0FF32CDE926
:1028FC0005230AF1010A049307938DF853301A93B8
:10290C005446052214F8011B514800F041FA049A70
:10291C00D8B9D00644BF20238DF85330110744BFDB
:10292C002B238DF853309AF800302A2B15D05446AF
:10293C0000204FF00A0C079A214611F8013B303B5E
:10294C00092B4ED9B0B1079214E0A0EB080309FA99
:10295C0003F31343A2460493D2E7039B191D1B6890
:10296C000391002BBBBF5B4242F00202079307931B
:10297C00B8BF049223782E2B0CD163782A2B35D137
:10298C00039B02341A1D1B680392002BB8BF4FF037
:10299C00FF330593DFF8BCA003225046217800F0EA
:1029AC00F7F940B14023A0EB0A0003FA00F0049BB6
:1029BC0001340343049314F8011B062226488DF8B6
:1029CC00281000F0E5F9002838D0244B1BBB039BE2
:1029DC00073323F0070308330393099B334409930C
:1029EC0067E70C4601200CFB0232A5E700234FF0F1
:1029FC000A0C194601340593204610F8012B303A85
:102A0C00092A03D9002BC5D00591C3E7044601233D
:102A1C000CFB0121F0E703AB00932A463846104B20
:102A2C0004A9AFF30080421C0646D6D1AB895B06E5
:102A3C003FF52CAF09981DB0BDE8F08F03AB0093A8
:102A4C002A463846064B04A900F07CF8EBE700BF99
:102A5C00DA300008E0300008E43000080000000024
:102A6C00B92700082DE9F047164699468A680B6984
:102A7C0007469342B8BF1346336091F843200C4687
:102A8C00DDF820800AB1013333602368990642BF18
:102A9C00336802333360256815F0060506D104F15E
:102AAC00190AE36832689B1AAB4228DC94F843207D
:102ABC00131E226818BF012392062DD449463846AE
:102ACC0004F14302C047013020D02368E56803F0CD
:102ADC000603042B18BF002532684FF00006A368CC
:102AEC0008BFAD1A226908BF25EAE5759342C4BF39
:102AFC009B1AED181A34B5421AD1002008E00123B4
:102B0C00524649463846C047013003D14FF0FF309A
:102B1C00BDE8F0870135C4E73020E11881F84300A7
:102B2C005A1C94F845102244023382F84310C5E72E
:102B3C000123224649463846C0470130E6D00136CB
:102B4C00D9E700002DE9FF470F7E9146782F80468C
:102B5C000C469A460C9D01F1430207D8622F0AD805
:102B6C00002F00F0D980582F00F0A48004F142050A
:102B7C0084F842703AE0A7F16303152BF6D801A153
:102B8C0051F823F0E92B0008FD2B0008792B0008E5
:102B9C00792B0008792B0008792B0008FD2B0008F5
:102BAC00792B0008792B0008792B0008792B000869
:102BBC000B2D00082D2C0008ED2C0008792B00089B
:102BCC00792B00082D2D0008792B00082D2C0008DE
:102BDC00792B0008792B0008F52C00082B681A1D9E
:102BEC001B682A6004F1420584F842300123A4E0FA
:102BFC0020682968060601F104030AD50E682B60CB
:102C0C00002E03DA2D23764284F843300A235E48E3
:102C1C0019E00E6810F0400F2B6018BF36B2EFE7CA
:102C2C002B682068191D2960010601D51E6802E079
:102C3C004606FBD51E886F2F0CBF08230A2352486B
:102C4C00002184F843106568002DA8BF2168A56099
:102C5C00A4BF21F0040121600EB9002D4DD0154602
:102C6C00B6FBF3F103FB1167C75D05F8017D374631
:102C7C00BB420E46F4D9082B0BD12368DE0708D5CE
:102C8C00236961689942DEBF302305F8013C05F1E8
:102C9C00FF35521B22614B4621464046CDF800A021
:102CAC0003AAFFF7DFFE01304CD14FF0FF3004B028
:102CBC00BDE8F087344881F845702968236851F8DD
:102CCC00046B29601D0614D5DF0744BF43F02003B5
:102CDC0023601EB9236823F0200323601023AFE781
:102CEC00236843F0200323607823284884F8453078
:102CFC00E3E7590648BFB6B2E6E71546BBE72B68D3
:102D0C002668181D6169286035061B6801D5196095
:102D1C0002E07006FBD51980002315462361BAE743
:102D2C002B6800211A1D2A601D686268284600F075
:102D3C002FF808B1401B606063682361002384F89E
:102D4C004330A8E72A46494640462369D04701301C
:102D5C00ABD023689B0713D4E068039B9842B8BFA1
:102D6C001846A4E70123324649464046D047013075
:102D7C009BD00135E36803995B1AAB42F2DCEBE7BD
:102D8C00002504F11906F5E7EB300008FC300008CB
:102D9C00034610B5C9B202449342184601D1002033
:102DAC0003E0047801338C42F6D110BD0A44914201
:102DBC0000F1FF3300D1704710B511F8014B91426F
:102DCC0003F8014FF9D110BD884210B501EB020494
:102DDC0002D98442234607D8431EA14208D011F8D9
:102DEC00012B03F8012FF8E7014602448A4200D177
:102DFC0010BD13F8014D02F8014DF7E738B5054643
:102E0C00002940D051F8043C0C1F002BB8BFE4182B
:102E1C0000F010F91C4A136833B96360146028463B
:102E2C00BDE8384000F00CB9A34208D9206821183D
:102E3C008B4201BF19685B6809182160EDE71A46DF
:102E4C005B680BB1A342FAD911685018A0420BD1A0
:102E5C0020680144501883421160E0D118685B6807
:102E6C00014411605360DAE702D90C232B60D6E7DA
:102E7C00206821188B4201BF19685B680918216012
:102E8C0063605460CBE738BDF800002070B50E4E7F
:102E9C000C463168054611B900F0BCF8306021468B
:102EAC00284600F0B7F8431C0AD0C41C24F00304D5
:102EBC00A04207D0211A284600F0ACF8013001D10D
:102ECC004FF0FF34204670BDFC0000202DE9F0418E
:102EDC00CD1C25F0030508350C2D38BF0C25002D15
:102EEC00074601DBA94205D90C2300263B6030467E
:102EFC00BDE8F0812E4E00F09DF833681C4634BBC3
:102F0C0029463846FFF7C2FF431C04464DD13468AE
:102F1C002646002E40D123683146384604EB030880
:102F2C0000F078F880453AD1216803356D1A25F008
:102F3C00030508350C2D38BF0C2538462946FFF7FC
:102F4C00A5FF01302BD023682B4423600EE02268B0
:102F5C00521B1ED40B2A16D96119A342256018BF27
:102F6C005960636808BF316062514B60384604F1A8
:102F7C000B0600F065F826F00706231DF21AB6D0F2
:102F8C009B1BA350B3E76268A3420CBF32605A602C
:102F9C00ECE723466468B2E734467668B9E70C235D
:102FAC0038463B6000F04CF8A1E72560DEE700BF37
:102FBC00F80000202DE9F041804614460E4621B958
:102FCC001146BDE8F041FFF781BF2AB9FFF716FFA4
:102FDC0025462846BDE8F08100F038F884420746C3
:102FEC0002D8B4EB500F12D821464046FFF76EFFC3
:102FFC0005460028EDD0BC422246314628BF3A4651
:10300C00FFF7D4FE31464046FFF7F8FEE1E73546C0
:10301C00DFE7000038B50023054D044608462B6059
:10302C00FDF752FE431C02D12B6803B1236038BD5F
:10303C0000010020014800F011B800BF040100207D
:10304C00014800F00CB800BF0401002051F8043C0A
:10305C00181F002BBCBF0B58C01870477047704727
:10306C00F8B500BFF8BC08BC9E467047F8B500BF69
:08307C00F8BC08BC9E46704739
:1030840057286B67293A2025642E25303264206B3B
:103094006700000000401050000000000000000025
:1030A40001020304060708090000000001020304EA
:1030B40002030405060708090A0B0C0D0E0F101075
:1030C4000102000002030405060708090A0B0C0D9F
:1030D4000E0F10100102232D302B2000686C4C00C1
:1030E4006566674546470030313233343536373804
:1030F4003941424344454600303132333435363762
:0C310400383961626364656600000000F9
:043110003101000881
:043114000D010008A1
:103118001000200040008000000C0140000C01401D
:10312800000C0140000C01400024F40010000000D5
:10313800010000002800002000000000000000003E
:103148000000000000000000000000000000000077
:103158000000000000000000000000000000000067
:103168000000000000000000000000000000000057
:103178000000000000000000000000000000000047
:103188000000000000000000000000000000000037
:0831980000000000000000002F
:0400000508000D4D95
:00000001FF
